:020000040000FA
:100000000C94E3020C940B030C940B030C940B0361
:100010000C940B030C940B030C940B030C94BF0E69
:100020000C940B030C940B030C940B030C940B0318
:100030000C940B030C940B030C940B030C940B0308
:100040000C94990F0C940B030C94670F0C94410FB4
:100050000C940B030C940B030C940B030C940B03E8
:100060000C94E30F0C940B0300000000003E5B4F68
:100070005B3E3E6B4F6B3E1C3E7C3E1C183C7E3C08
:10008000181C577D571C1C5E7F5E1C00183C180016
:10009000FFE7C3E7FF0018241800FFE7DBE7FF30A6
:1000A000483A060E2629792926407F050507407F14
:1000B00005253F5A3CE73C5A7F3E1C1C08081C1C87
:1000C0003E7F14227F22145F5F005F5F06097F017D
:1000D0007F006689956A606060606094A2FFA29468
:1000E00008047E040810207E201008082A1C080836
:1000F0001C2A08081E101010100C1E0C1E0C303884
:100100003E3830060E3E0E06000000000000005F84
:1001100000000007000700147F147F14242A7F2AA0
:100120001223130864623649562050000807030062
:10013000001C2241000041221C002A1C7F1C2A08AE
:10014000083E080800807030000808080808000011
:1001500060600020100804023E5149453E00427F85
:10016000400072494949462141494D331814127FD4
:100170001027454545393C4A494931412111090774
:100180003649494936464949291E000014000000F5
:1001900040340000000814224114141414140041C7
:1001A00022140802015909063E415D594E7C121184
:1001B000127C7F494949363E414141227F414141BC
:1001C0003E7F494949417F090909013E4141517337
:1001D0007F0808087F00417F41002040413F017FA8
:1001E000081422417F404040407F021C027F7F0470
:1001F00008107F3E4141413E7F090909063E4151B9
:10020000215E7F09192946264949493203017F01A8
:10021000033F4040403F1F2040201F3F4038403FA9
:10022000631408146303047804036159494D4300BF
:100230007F4141410204081020004141417F0402F6
:10024000010204404040404000030708002054548D
:1002500078407F284444383844444428384444286B
:100260007F385454541800087E090218A4A49C78BE
:100270007F0804047800447D40002040403D007F1A
:100280001028440000417F40007C047804787C08FA
:100290000404783844444438FC18242418182424CE
:1002A00018FC7C08040408485454542404043F44B3
:1002B000243C4040207C1C2040201C3C4030403CE2
:1002C00044281028444C9090907C4464544C440042
:1002D00008364100000077000000413608000201A6
:1002E0000204023C2623263C1EA1A161123A404092
:1002F000207A38545455592155557941225454780F
:1003000042215554784020545579400C1E527212A7
:100310003955555559395454545939555454580030
:1003200000457C410002457D420001457C407D1234
:1003300011127DF0282528F07C5455450020545496
:100340007C547C0A097F4932494949323A44444441
:100350003A324A4848303A4141217A3A424020787C
:10036000009DA0A07D3D4242423D3D4040403D3C7D
:1003700024FF2424487E4943662B2FFC2F2BFF09A2
:1003800029F620C0887E0903205454794100004496
:100390007D413048484A32384040227A007A0A0A81
:1003A000727D0D19317D2629292F282629292926F4
:1003B00030484D4020380808080808080808382F39
:1003C00010C8ACBA2F102834FA00007B00000814C3
:1003D0002A142222142A14085500550055AA55AA99
:1003E00055AAFF55FF55FF000000FF00101010FF39
:1003F00000141414FF001010FF00FF1010F010F094
:10040000141414FC001414F700FF0000FF00FF1484
:1004100014F404FC141417101F10101F101F1414D0
:10042000141F00101010F0000000001F101010101A
:100430001F10101010F010000000FF10101010100E
:1004400010101010FF10000000FF140000FF00FF4C
:1004500000001F10170000FC04F4141417101714E8
:1004600014F404F40000FF00F7141414141414140A
:10047000F700F7141414171410101F101F1414147D
:10048000F4141010F010F000001F101F0000001FE7
:1004900014000000FC140000F010F01010FF10FF1A
:1004A000141414FF141010101F00000000F010FFAF
:1004B000FFFFFFFFF0F0F0F0F0FFFFFF0000000093
:1004C00000FFFF0F0F0F0F0F3844443844FC4A4A17
:1004D0004A347E02020606027E027E0263554941CC
:1004E000633844443C04407E201E2006027E020203
:1004F00099A5E7A5991C2A492A1C4C7201724C3017
:100500004A4D4D303048784830BC625A463D3E49ED
:100510004949007E0101017E2A2A2A2A2A44445F91
:10052000444440514A444040444A51400000FF0185
:1005300003E080FF000008086B6B08361236243693
:10054000060F090F060000181800000010100030F8
:1005500040FF0101001F01011E00191D1712003C80
:100560003C3C3C000000000000000000230026008E
:100570002900000000080002010000030407000039
:1005800000000000000000000000240027002A00F6
:10059000010204081020408001020408102001021A
:1005A0000408102000000000250028002B0004048F
:1005B000040404040404020202020202030303030B
:1005C00003030200FE1011241FBECFEFD8E0DEBFF0
:1005D000CDBF13E0A0E0B1E0ECE5F7E302C0059089
:1005E0000D92A83CB107D9F725E0A8ECB3E001C013
:1005F0001D92AE37B207E1F712E0C3EED2E004C0BD
:100600002197FE010E947C1AC23ED107C9F70E94C1
:100610007B110C94AC1B0C940000AF92BF92CF9254
:10062000DF92EF92FF920F931F93CF93DF936C01B2
:100630007B018B01040F151FEB015E01AE18BF0893
:10064000C017D10759F06991D601ED91FC91019045
:10065000F081E02DC6010995892B79F7C501DF915D
:10066000CF911F910F91FF90EF90DF90CF90BF90AF
:10067000AF900895FC01538D448D252F30E0842FD9
:1006800090E0821B930B541710F0CF9608950197BA
:100690000895FC01918D828D981761F0A28DAE0FA7
:1006A000BF2FB11D5D968C91928D9F5F9F73928F2E
:1006B00090E008958FEF9FEF0895FC01918D828D5A
:1006C000981731F0828DE80FF11D858D90E0089527
:1006D0008FEF9FEF0895FC01918D228D892F90E07F
:1006E000805C9F4F821B91098F739927089588E63C
:1006F00094E00E946B0321E0892B09F420E0822F13
:10070000089580E090E0892B29F00E947703811101
:100710000C9400000895FC01A48DA80FB92FB11D01
:10072000A35ABF4F2C91848D90E001968F73992727
:10073000848FA689B7892C93A089B1898C91837005
:1007400080648C93938D848D981306C00288F389FE
:10075000E02D80818F7D80830895EF92FF920F932B
:100760001F93CF93DF93EC0181E0888F9B8D8C8D5D
:1007700098131AC0E889F989808185FF15C09FB751
:10078000F894EE89FF896083E889F9898081837014
:10079000806480839FBF81E090E0DF91CF911F91C3
:1007A0000F91FF90EF900895F62E0B8D10E00F5FE4
:1007B0001F4F0F731127E02E8C8D8E110CC00FB6BA
:1007C00007FCFACFE889F989808185FFF5CFCE0152
:1007D0000E948B03F1CFEB8DEC0FFD2FF11DE35A3F
:1007E000FF4FF0829FB7F8940B8FEA89FB898081D5
:1007F0008062CFCFCF93DF93EC01888D8823B9F04F
:10080000AA89BB89E889F9898C9185FD03C080811B
:1008100086FD0DC00FB607FCF7CF8C9185FFF2CF98
:10082000808185FFEDCFCE010E948B03E9CFDF9160
:10083000CF910895833081F028F4813099F082308F
:10084000A9F008958730A9F08830C9F08430B1F458
:10085000809180008F7D03C0809180008F7780938E
:100860008000089584B58F7784BD089584B58F7D09
:10087000FBCF8091B0008F778093B0000895809176
:10088000B0008F7DF9CFCF93DF93282F30E0F901AF
:10089000EE58FA4F8491F901E057FA4FD491F901DB
:1008A000E255FA4FC491CC23A1F081110E941A04A1
:1008B000EC2FF0E0EE0FFF1FE859FA4FA591B4912D
:1008C000EC91ED2381E090E009F480E0DF91CF919D
:1008D000089580E090E0FACF1F93CF93DF93282F05
:1008E00030E0F901EE58FA4F8491F901E057FA4FE0
:1008F000D491F901E255FA4FC491CC23A9F0162FF7
:1009000081110E941A04EC2FF0E0EE0FFF1FEC554E
:10091000FA4FA591B4918FB7F894EC91111108C0DA
:10092000D095DE23DC938FBFDF91CF911F91089587
:10093000DE2BF8CFCF93DF9390E0FC01E057FA4F26
:10094000249182559A4FFC0184918823D1F090E044
:10095000880F991FFC01EA57FA4FA591B491FC0149
:10096000EC55FA4FC591D491623071F49FB7F89469
:100970003C91822F809583238C93E8812E2B2883B2
:100980009FBFDF91CF9108958FB7F894EC912E2BF4
:100990002C938FBFF6CFCF93809101038C3021F041
:1009A0008F3F61F1CF910895E2ECF5E0C491C7FD6E
:1009B000F9CF61E08CE00E949A04CC2309F48CC04A
:1009C000C23009F0A1C08091B100887F836080931C
:1009D000B10086E48093B30080EE96E0A0E0B0E042
:1009E00080935C0490935D04A0935E04B0935F04D5
:1009F00080917000826080937000D4CF8CE08093EF
:100A00000103E2ECF5E0C491CF3F61F2C13021F186
:100A100050F0C23009F43EC0C7FDC4CF61E08CE0A5
:100A20000E949A04CDCF14BC15BC84B5826084BDED
:100A300085B5816085BDEAEBF5E0E491F0E0EE0F6D
:100A4000FF1FEC55FA4F85919491ECE9F5E0E491A4
:100A5000E0935B04C0E0ADCF109280001092810063
:100A60008091810088608093810080918100816005
:100A700080938100EAEBF5E0E491F0E0EE0FFF1FD8
:100A8000EC55FA4F85919491ECE9F5E0E491E0930F
:100A90005A048FCF1092B0001092B1008091B00034
:100AA00082608093B0008091B10081608093B1003A
:100AB000EAEBF5E0E491F0E0EE0FFF1FEC55FA4FA2
:100AC000859194919093590480935804ECE9F5E052
:100AD000E491E09357046DCF85B5887F836085BD31
:100AE00082E287BD80EE96E0A0E0B0E080936404EF
:100AF00090936504A0936604B093670480916E00A0
:100B0000826080936E004ECFC130F1F480918100FD
:100B1000887F8160809381008FED98E090938900B9
:100B20008093880080EE96E0A0E0B0E080936004BF
:100B300090936104A0936204B093630480916F006A
:100B4000826080936F002ECFC23021F0C1112ACF76
:100B50008FEDC7CF8FED3ECF3FB7F89480913E0425
:100B600090913F04A0914004B091410426B5A89B08
:100B700005C02F3F19F00196A11DB11D3FBFBA2F2F
:100B8000A92F982F8827BC01CD01620F711D811DEF
:100B9000911D42E0660F771F881F991F4A95D1F774
:100BA00008958F929F92AF92BF92CF92DF92EF9271
:100BB000FF924B015C010E94AC056B017C010E941D
:100BC000AC056C197D098E099F09683E734081054B
:100BD0009105A8F321E0821A9108A108B10888EED6
:100BE000C80E83E0D81EE11CF11C81149104A104FD
:100BF000B10429F7FF90EF90DF90CF90BF90AF90B6
:100C00009F908F9008952091EF03260F3327331F75
:100C100021323105ECF420911304FC0190E080E0D6
:100C2000243069F082E00895A091EF032191AC0196
:100C300041535C4FA40FB52FB11D2C93019686171D
:100C400098F38091EF03680F6093EF0380E00895BD
:100C500081E0089508958FEF9FEF08958FEF9FEF44
:100C600008958091C80390E0919581959109089528
:100C7000CF93DF93CB01EA01642F0E940306CE01DC
:100C8000DF91CF910895CF93DF931F92CDB7DEB759
:100C9000698361E0CE0101960E94030681E090E045
:100CA0000F90DF91CF910895FC01838D8F3F51F418
:100CB000848D8F3F39F46EBD00000DB407FEFDCF6B
:100CC0008EB5089528E030E090E8A6A1B7A14C9138
:100CD00081A5809584238C93A4A1B5A180A5462FDE
:100CE000492371F04C91842B8C93A6A1B7A18C91D0
:100CF00041A5842B8C9396952150310931F70895A5
:100D00004C9180958423F0CF1F93CF93DF93EC0118
:100D1000162F60E08D8D0E946C048F8D18161CF4C8
:100D200060E00E946C04612FCE010E9454068F8DFA
:100D3000181634F461E0DF91CF911F910C946C048C
:100D4000DF91CF911F9108950F931F93CF938C0143
:100D5000C62F67FDCFE7F801C0A361E2C8010E947A
:100D600084066C2F6068C8010E94840660E2C80196
:100D7000CF911F910F910C9484061F93CF93DF9313
:100D8000EC018E8D18166CF460E00E946C0464EF28
:100D900071E080E090E00E94D10561E08E8D0E94BC
:100DA0006C0419A1183008F017E019A361E2CE0114
:100DB0000E948406612F6061CE010E94840660E279
:100DC000CE010E94840668A1CE010E94A40660E2C2
:100DD000CE010E9484066CE0CE01DF91CF911F917D
:100DE0000C948406CF92DF92EF92FF920F931F93A1
:100DF000CF93DF93EC019AA1992329F08BA18F5F08
:100E00008917D8F58BA389E0E82E81E0F82E10E051
:100E1000612F6064CE010E94840660E8CE010E94CA
:100E2000840661E08D8D0E946C048F8D18161CF471
:100E300060E00E946C04670104E5F60161916F01B6
:100E4000CE010E9454060150C1F78F8D18161CF474
:100E500061E00E946C041F5FF4E5EF0EF11C163098
:100E6000B9F660E4CE01DF91CF911F910F91FF9011
:100E7000EF90DF90CF900C9484061BA2CE010E94CD
:100E8000BD06C1CFFC01D90177FD3CC080859185AD
:100E900068177907BCF557FD35C0828593854817DB
:100EA000590784F58689823071F18330C9F1813028
:100EB00031F48FE290E0861B970BBA01AC016435E8
:100EC000710500F540335105E8F4CA0123E095951A
:100ED00087952A95E1F724E5289FF001299FF00DD9
:100EE0001124E60FF71FE75FFE4F3081477055274B
:100EF00081E090E001C0880F4A95EAF7AB2BB9F08A
:100F0000832B8083089583E590E09C01261B370B9B
:100F1000B9018FE290E09C01241B350BA901CFCFD2
:100F200083E590E0841B950BAB01BC01C8CF809595
:100F30008323E7CF0895FC016370668B84819581DC
:100F400026813781613039F0633029F091878087BD
:100F50003387228708953187208793878287089572
:100F60002F923F924F925F926F927F928F929F92B9
:100F7000AF92BF92CF92DF92EF92FF920F931F93A7
:100F8000CF93DF93CDB7DEB76A970FB6F894DEBF85
:100F90000FBECDBF9A8F898F7A8369834A01D22E83
:100FA00018870F833701BC2CDC0159962D913C9199
:100FB0005A972115310509F015C118968D919C910C
:100FC0001997681779070CF0D7C11A968D919C91E3
:100FD000481759070CF0D0C14C2C512CB6E0CB9ED1
:100FE000600D711D11247C876B87161617060CF097
:100FF000C3C1EA2DF0E0FA87E98793E0EE0FFF1F07
:101000009A95E1F7F88BEF87CF01840F951F18169B
:1010100019060CF0B1C1A98DBA8D58968C91811129
:1010200004C0BFEABD1508F4D394A98DBA8DED9123
:10103000FC9111970284F385E02DCD010995B5E06F
:10104000DB9EC0011124E981FA81FC83EB83312C02
:10105000212C9C0128593F4F388F2F8B4A2D50E06F
:101060005E8B4D8BEF89F88DE20DF31D44919E82CE
:101070008D82D12CC12C69817A81620D731D7A8B8E
:10108000698B842F90E09C8B8B8BE98DFA8DA081EE
:10109000B18140FF82C0F1E0BF126FC0AF126DC0DE
:1010A0001C96ED91FC912F813885A4014C0D5D1D9E
:1010B00069897A89898D9A8D0995EB89FC89F595DD
:1010C000E7954E2F5FEFC51AD50A6D817E818D8918
:1010D0009E89680F791F7E836D8398E0C916D104BD
:1010E00081F6AFEF2A1A3A0AEB81FC81E40DF51D77
:1010F000FC83EB83F5E02F16310409F0B3CF2F8189
:10110000388526153705B9F0A98DBA8DED91FC917A
:10111000B1E0BB1257C0AB1255C069817A816B5FD9
:101120007F4F0088F189E02D830128E030E0A401A1
:10113000898D9A8D0995A98DBA8DED91FC911197A4
:101140000688F789E02DCD016A960FB6F894DEBFC8
:101150000FBECDBFDF91CF911F910F91FF90EF9008
:10116000DF90CF90BF90AF909F908F907F906F90C7
:101170005F904F903F902F9009941E96ED91FC91B7
:10118000EF80F88409851A8592014D815E816B811B
:101190007C81898D9A8D099590CF2F813885261570
:1011A000370509F48ACF31E0B31207C0A31205C096
:1011B0001C96ED91FC91930178CF1E96ED91FC91D8
:1011C0007301E0CF6B857C85641975090684F7850A
:1011D000E02D73010F8518899201A401898D9A8DE4
:1011E0000995A9CFF901349694913297459154917C
:1011F000D91AB7E0DB9E400D511D1124F90125914C
:1012000034913C8B2B8BFA0125903490FA01329665
:10121000749031963491398B329664903196449023
:1012200041E04C1518F04A1508F07FC0662D062CD9
:10123000000C770B7C836B83842D042C000C990BA2
:101240009E838D83A98DBA8DED91FC9111970284B7
:10125000F385E02DCD010995512CD12CC12CEA2D1F
:10126000F0E0FA87E9872B2D30E03C872B87A4013B
:10127000440D511D47FC5A95588F4F8B69817A81D7
:10128000660D711D67FC7A957E876D877989C71613
:1012900008F051CF2C2D30E04D815E81420F531F5D
:1012A000A985BA854A9FC0014B9F900D5A9F900D0A
:1012B0001124FC01E80DF91DF88BEF87852D612CB9
:1012C0004F89588D420F531F5E8B4D8B671408F06A
:1012D00050C044244394480E877041F4C1010196E4
:1012E000EB89FC89E20DF31DD4901C01D7FE19C0D7
:1012F000A98DBA8DED91FC91662D70E0B1E0BB1225
:1013000019C0AB1217C02D853E85620F731F048470
:10131000F585E02D2F8138854D895E89898D9A8DDF
:101320000995DD0C6394842DD1CF1E821D821C8211
:101330001B8288CF4B815C81640F751FAB85BC8598
:101340006A9FC0016B9F900D7A9F900D1124698157
:101350007A81680F791F0684F785E02DEF80F88485
:1013600009851A859D014F855889898D9A8D099522
:10137000D8CF570CC3948ACF6A960FB6F894DEBFC5
:101380000FBECDBFDF91CF911F910F91FF90EF90D6
:10139000DF90CF90BF90AF909F908F907F906F9095
:1013A0005F904F903F902F9008958F929F92AF92B1
:1013B000CF92EF92FF920F931F93CF93DF93EC01A5
:1013C000262F898D9A8D009709F051C06A30D1F48B
:1013D0001D861C868D8948E0849F900111248E858E
:1013E0009F85820F931F9F878E8781E090E0DF911A
:1013F000CF911F910F91FF90EF90CF90AF909F9062
:101400008F9008956D3089F3CC88AD888F898823BB
:10141000C1F08C859D8536E0C39E800D911D112401
:10142000488559854817590764F44E855F851D86A0
:101430001C8638E0A39EC0011124840F951F9F874E
:101440008E87EA88FB88088919894E855F856C85B7
:101450007D85CE010E94B0072C898C859D8546E054
:10146000249F800D911D11249D878C87BECF6A30EB
:1014700069F41D861C86FC013896E4912D898E85C1
:101480009F85E29F800D911D1124ADCF6D3009F431
:10149000ACCFFC0134963491631708F4A6CF329692
:1014A000E491E61708F4A1CFFC0132968590949060
:1014B000462F431B342F47E0349F800C911C11248E
:1014C000F401329634913196E4913323A9F1EE235D
:1014D00099F1CC88F4013596E491AD884F89442385
:1014E00001F10E2E000CFF0BE30FF11DCE9EA001AB
:1014F000CF9E500D11246C857D85460F571F688542
:101500007985641775076CF44E855F851D861C868A
:10151000FC013896E491AE9E400D511D11245F8769
:101520004E87EA88FB88088919894E855F856C8516
:101530007D85CE010E94B007F4013496E4912C8998
:101540008C859D85E29F800D911D11248DCF6F921A
:101550007F928F929F92AF92BF92CF92DF92EF9243
:10156000FF920F931F93CF93DF93EC016B015A010E
:1015700039014801E881F9810284F385E02D09955C
:10158000E881F9810288F389E02D87019301A501A3
:10159000B601CE010995A501480D591D41505109CB
:1015A000E881F9810288F389E02D9301B601CE012B
:1015B0000995E881F9810088F189E02D9401A50160
:1015C000B601CE010995C60CD71CB6016150710950
:1015D000E881F9810088F189E02D9401A501CE010F
:1015E0000995E881F9810688F789E02DCE01DF9120
:1015F000CF911F910F91FF90EF90DF90CF90BF9010
:10160000AF909F908F907F906F9009946F927F9290
:101610008F929F92AF92BF92CF92DF92EF92FF9202
:101620000F931F93CF93DF935C01EB016A01490194
:1016300038018701DC01ED91FC916217730719F500
:10164000641675062CF0962D872D3A01C92ED82EDA
:101650009601261937092F5F3F4F048CF58DE02D39
:10166000A301BE01C5010995DF91CF911F910F9193
:10167000FF90EF90DF90CF90BF90AF909F908F90B2
:101680007F906F9008954615570591F426173707F8
:1016900024F0892D4B01C22FD82F9E01281939091A
:1016A0002F5F3F4F068CF78DE02DA601B401DACFF6
:1016B0000284F385E02D0995D501ED91FC91048814
:1016C000F589E02D83019401A601BE01C5010995AC
:1016D000D501ED91FC910688F789E02DC501DF91D8
:1016E000CF911F910F91FF90EF90DF90CF90BF901F
:1016F000AF909F908F907F906F900994EF92FF92A0
:101700000F931F93DC011A960D911C911B9718964D
:101710002D913C911997ED91FC9100A0F1A1E02D44
:101720007B0150E040E070E060E009951F910F916F
:10173000FF90EF9008954F925F926F927F928F92F9
:101740009F92AF92BF92CF92DF92EF92FF920F9350
:101750001F93CF93DF936C012B015A01390148018C
:10176000DC01ED91FC910284F385E02D0995E20105
:10177000640C751CD601ED91FC91C615D7055CF47F
:101780000088F189E02D87019401A501BE01C60101
:1017900009952196EFCF0688F789E02DC601DF91E4
:1017A000CF911F910F91FF90EF90DF90CF90BF905E
:1017B000AF909F908F907F906F905F904F90099423
:1017C0008F929F92AF92BF92CF92DF92EF92FF9251
:1017D0000F931F93CF93DF93EC015B014A016901E3
:1017E000E881F9810284F385E02D099595012C0D9E
:1017F0003D1D21503109E881F9810488F589E02DEA
:1018000078018401A401B501CE010995E881F9812F
:101810000688F789E02DCE01DF91CF911F910F91BE
:10182000FF90EF90DF90CF90BF90AF909F908F9000
:1018300009948F929F92AF92BF92CF92DF92EF92D4
:10184000FF920F931F93CF93DF93EC015B014A014B
:1018500069017801E881F9810284F385E02D099519
:10186000C80CD91C860101501109E881F98104884E
:10187000F589E02D9501A401B501CE010995E88116
:10188000F9810688F789E02DCE01DF91CF911F9174
:101890000F91FF90EF90DF90CF90BF90AF909F900F
:1018A0008F900994EF92FF920F931F93DC01ED91BB
:1018B000FC9100A0F1A1E02D09951F910F91FF90DF
:1018C000EF9008950F931F93DC01ED91FC91068C2E
:1018D000F78DE02D09951F910F9108950F931F9398
:1018E000DC01ED91FC91048CF58DE02D09951F91A3
:1018F0000F910895DC01ED91FC910084F185E02DBC
:1019000009942F923F924F925F926F927F928F92A3
:101910009F92AF92BF92CF92DF92EF92FF920F937E
:101920001F93CF93DF9300D000D000D0CDB7DEB7A8
:101930003C016A013E832D83FC82EB825801A41A8C
:10194000B50AB7FE03C0B194A194B1088D809E8002
:10195000861A970A97FE03C09194819491088A147D
:101960009B045CF0902F812F0D811E819D838E83BF
:101970009C2D8D2D6B01692F782F0C151D055CF0AA
:101980009D818E817E836D83692F782F902F812F8B
:101990008601C92ED82E1601201A310A2B012D815D
:1019A0003E81421A530A57FE03C051944194510894
:1019B000710137FE03C03FEFE31AF30AF594E79491
:1019C0008D819E81861797075CF5A1E0B0E0BA8310
:1019D000A983C016D1064CF1D301ED91FC9104848A
:1019E000F585E02D2B813C81A8016D817E818A14D3
:1019F0009B041CF04D815E81B801C3010995E41878
:101A0000F508F7FE0AC02D813E8189819A81280F51
:101A1000391F3E832D83E20CF31C0F5F1F4FD9CF7C
:101A20002FEF3FEF3A832983D4CF26960FB6F89451
:101A3000DEBF0FBECDBFDF91CF911F910F91FF9001
:101A4000EF90DF90CF90BF90AF909F908F907F905E
:101A50006F905F904F903F902F900895089590E081
:101A600080E008956091030180E595E00E94A4065E
:101A700080E595E00C94F206FC0194A5933019F4EE
:101A8000643079F40895943019F4633051F4089572
:101A9000913019F4623029F40895923011F46130D4
:101AA00011F0961364A70895AF92BF92CF92DF9280
:101AB000EF92FF920F931F93CF93DF93CEE1D5E088
:101AC00010E000E088E1C82ED12C9AE0A92EB12CBC
:101AD000809146058017110671F16CF1E0904A057E
:101AE000F12C86E090E00115110589F40E94821A1C
:101AF000FC01B182A082D382C282F582E4829093FB
:101B00001F0580931E050F5F1F4F2296E1CF0E9495
:101B1000821AFC01DE0112970D90BC91A02D8D91CF
:101B20009C91029691838083D382C282F582E48263
:101B3000F983E883E8CFDF91CF911F910F91FF9058
:101B4000EF90DF90CF90BF90AF900895CF9381E05A
:101B500090E00E94DB19C82F82E090E00E94DB1920
:101B60002C2F30E0322F2227820F932F911DCF91FF
:101B70000895E9E0F1E088EF91E0DF019C011D921A
:101B800021503040E1F7E0E5F5E015861486178630
:101B900016860895FC0101900020E9F73197AF0106
:101BA000481B590BBC0180E595E00C940D038F9206
:101BB0009F92AF92BF920F931F93CF93DF93CDB7B6
:101BC000DEB7A1970FB6F894DEBF0FBECDBF19A246
:101BD000423008F44AE08E010F5D1F4F842E912C95
:101BE000B12CA12CA50194010E94231AE62FB90162
:101BF000CA01EA30F4F4E05DD801EE938D01232BA5
:101C0000242B252B79F790E080E0109719F0CD0177
:101C10000E94CA0DA1960FB6F894DEBF0FBECDBFCD
:101C2000DF91CF911F910F91BF90AF909F908F90B8
:101C30000895E95CE1CFCF92DF92EF92FF92CF93CC
:101C4000DF936B017C016DE280E595E00E94D50990
:101C5000EC0166277727CB016C197D098E099F0956
:101C60004AE00E94D70D8C0F9D1FDF91CF91FF900E
:101C7000EF90DF90CF9008950C94CA0DBC01990F9E
:101C8000880B990B97FD0C941B0E4AE00C94D70D12
:101C90000E94A71B1F93CF93DF9385ED8093BC0019
:101CA0008091CB039091CC03A091CD03B091CE0352
:101CB0000796A11DB11D23E0B695A7959795879529
:101CC0002A95D1F72091BC0024FD03C01092130483
:101CD00052C04091CB035091CC036091CD037091E1
:101CE000CE03452B462B472B69F30097A105B10581
:101CF00041F025E32A95F1F700000197A109B10908
:101D0000E1CF8091CA03C1E0C093C903882399F150
:101D1000D091B8001091BA008091BC008A7B80936A
:101D2000BC0060E082E10E946C0460E083E10E94FC
:101D30006C0410921304C09315041092140461E013
:101D400082E10E946C0461E083E10E946C04809156
:101D5000B9008E7F8093B9008091B9008D7F809308
:101D6000B90088E48093B80085E48093BC001093A8
:101D7000BA00D093B800DF91CF911F9108951F92C0
:101D80000F920FB60F9211242F933F934F935F93AF
:101D90006F937F938F939F93AF93BF93EF93FF9333
:101DA00080915C0490915D04A0915E04B0915F0409
:101DB000892B8A2B8B2BD1F190915704E0915804F9
:101DC000F091590480818927808380915C049091EF
:101DD0005D04A0915E04B0915F04181619061A06FE
:101DE0001B069CF480915C0490915D04A0915E04BC
:101DF000B0915F040197A109B10980935C049093AD
:101E00005D04A0935E04B0935F04FF91EF91BF91D6
:101E1000AF919F918F917F916F915F914F913F9182
:101E20002F910F900FBE0F901F9018958091010376
:101E3000E2ECF5E0E4919FEF90930103E13051F083
:101E400030F0E23069F060E00E946C04DECF109266
:101E50006E00F9CF90916F009D7F90936F00F3CF4C
:101E6000909170009D7F9093700091E09093B000EE
:101E70009091B100987F94609093B1001092B3005C
:101E8000E2CF1F920F920FB60F9211242F933F9320
:101E90004F935F936F937F938F939F93AF93BF9372
:101EA000EF93FF9388E694E00E948B03FF91EF91FC
:101EB000BF91AF919F918F917F916F915F914F9162
:101EC0003F912F910F900FBE0F901F9018951F926A
:101ED0000F920FB60F9211242F938F939F93EF932E
:101EE000FF93E0917804F09179048081E0917E0481
:101EF000F0917F0482FD1BC09081809181048F5FEF
:101F00008F7320918204821741F0E0918104F0E008
:101F1000E859FB4F958F80938104FF91EF919F913A
:101F20008F912F910F900FBE0F901F901895808169
:101F3000F4CF1F920F920FB60F9211242F933F935D
:101F40008F939F93AF93BF9380913A0490913B04FA
:101F5000A0913C04B0913D043091390423E0230F5B
:101F60002D3758F50196A11DB11D2093390480939A
:101F70003A0490933B04A0933C04B0933D048091B9
:101F80003E0490913F04A0914004B0914104019619
:101F9000A11DB11D80933E0490933F04A093400483
:101FA000B0934104BF91AF919F918F913F912F9139
:101FB0000F900FBE0F901F90189526E8230F0296E2
:101FC000A11DB11DD2CF1F920F920FB60F921124F7
:101FD0002F933F934F935F936F937F938F939F9331
:101FE000AF93BF93EF93FF938091B900887F8036C2
:101FF00009F44AC0F0F5883209F4A5C018F580311B
:1020000009F499C0B8F4882309F4F5C0883009F4BC
:1020100092C0FF91EF91BF91AF919F918F917F916E
:102020006F915F914F913F912F910F900FBE0F9045
:102030001F901895883109F486C0803251F780933B
:10204000120414C0803409F49BC040F48033B9F307
:102050008833F9F68093120485ECAEC0803509F41C
:1020600083C0883509F494C0883499F60E944A0EDA
:10207000D0CF883909F48AC038F5883729F050F470
:10208000883611F0803729F683E08093130410928C
:10209000110455C0883809F479C0803919F08038A6
:1020A00009F0B7CF80911104803208F06FC0E09141
:1020B000110481E08E0F809311048091BB00F0E049
:1020C000EF50FC4F80833BC0803B39F0D0F4803A26
:1020D00009F477C0883A09F09CCF84E08093130418
:1020E0001092F0031092EF03F0E0E0E00995809188
:1020F000EF0381110FC081E08093EF031092CF03B3
:1021000009C0803C09F4A8CF883C09F4A5CF883BDE
:1021100009F07FCFE091F00381E08E0F8093F00310
:10212000F0E0E153FC4F80818093BB009091F0037D
:102130008091EF0329C0809138048093BB0085EC27
:102140008093BC0066CF9091370480913604981735
:1021500058F5E091370481E08E0F80933704F0E06A
:10216000EA5EFB4F8081E9CFE091370481E08E0F7A
:10217000809337048091BB00F0E0EA5EFB4F8083E0
:1021800090913704809136049817C8F285E8D8CF2B
:10219000E091370481E08E0F809337048091BB007B
:1021A000F0E0EA5EFB4F80838091150481115ECFE1
:1021B00081E08093140484EA8093BC00109213049D
:1021C00028CF85EC8093BC001092130480911104F9
:1021D000803230F4E0911104F0E0EF50FC4F1082B7
:1021E0006091110470E081EF93E0F0E0E0E0099588
:1021F000109211040ECF1092120438CFE8E6F4E0EA
:102200001382128288EE93E0A0E0B0E0848395838D
:10221000A683B78380E193E09183808385EC90E08F
:102220009587848784EC90E09787868780EC90E0A0
:10223000918B808B81EC90E0938B828B82EC90E091
:10224000958B848B86EC90E0978B868B118E128E0B
:10225000138E148EE0E5F5E01382128224E530E05F
:102260003583248380E390E09783868331872087BA
:1022700093878287168A158614861786168681E0CC
:10228000858B848B2FEF3FEF338B228B318B208B11
:10229000878B108E128E118E22E233E031832083E1
:1022A0009BE0938F9DE0948F99E0958F98E0968FB7
:1022B0009AE0978FEEE1F5E094E190A711A612A6BF
:1022C00083A793E094A792E095A716A617A6E4E14A
:1022D000F5E011821082138212821582148224E6A4
:1022E00030E037832683E5E0F5E01582148213821F
:1022F000128286830895789484B5826084BD84B503
:10230000816084BD85B5826085BD85B5816085BDF0
:1023100080916E00816080936E00109281008091A8
:102320008100826080938100809181008160809330
:102330008100809180008160809380008091B10055
:1023400084608093B1008091B00081608093B00080
:1023500080917A00846080937A0080917A00826014
:1023600080937A0080917A00816080937A008091D6
:102370007A00806880937A001092C100E09178041E
:10238000F091790482E08083E0917404F091750407
:102390001082E0917604F09177048FEC80831092A4
:1023A0008004E0917C04F0917D0486E08083E091DC
:1023B0007A04F0917B04808180618083E0917A04CB
:1023C000F0917B04808188608083E0917A04F091B1
:1023D0007B04808180688083E0917A04F0917B04A3
:1023E00080818F7D808362E084E00E949A0462E0B5
:1023F00085E00E949A0462E086E00E949A0462E00E
:1024000083E00E949A0461E087E00E949A0480E4DD
:1024100080937C0080917A00806480937A00809120
:102420007A0086FDFCCF8091780060917900762F4C
:10243000682F072E000C880B990B6115710581051B
:10244000910511F00E94D21980916B058F3FF1F434
:1024500090916C059F3FD1F4CFB7F89480914204DE
:10246000882309F4E8C1809142048F5F809342047D
:10247000CFBF8CB58C7F8CBD8DB58E7F8DBD8CB55F
:10248000837F8CBD8CB58F7D8CBD3CC061E00E948C
:102490009A0461E080916C050E949A0480916C0519
:1024A000082E000C990BFC01E255FA4FE491F0E084
:1024B000EE0FFF1FEC55FA4F2591349130937705BD
:1024C00020937605FC01E057FA4FE491E0937905FB
:1024D00080916B05082E000C990BFC01E255FA4F18
:1024E000E491F0E0EE0FFF1FEC55FA4F2591349187
:1024F0003093750520937405FC01E057FA4FE49181
:10250000E093780561E080916D050E949A048091C6
:102510006E0518161CF461E00E949A0480916F0504
:1025200018161CF461E00E949A04C0E5D5E084E02E
:102530008093710588E28093700510927205109265
:102540007305CE010E94BD06CE010E94F2066CE327
:10255000CE010E94A4060E94B90DCE010E94F2068F
:10256000D0931105C09310058EE195E090930D0571
:1025700080930C0584E195E090930F0580930E0500
:10258000D0934F05C0934E050E94540D80911005C5
:102590009091110590931D0580931C0584E290E0B5
:1025A000909315058093140584E090E090931705AF
:1025B00080931605AFE06A2E712CCC24C394D12CE5
:1025C000E5E02E2E312CF9E14F2E512C0E94B90D51
:1025D000C0910701D0910801C130D10509F06EC149
:1025E00081E080936405809365050E94B90DD093C6
:1025F0006105C093600510926305109262057092A8
:102600005D0560925C0510925F0510925E058AE49C
:1026100093E00E943C0E01E010E023E530E04AE048
:1026200050E070E060E080E595E00E94E00B1092E1
:102630005D0510925C0570925F0560925E05809169
:102640000501909106018130910509F01CC110929D
:10265000610510926005909363058093620585E59E
:1026600093E00E943C0E10925D0510925C05509222
:102670005F0540925E0580910501909106010297E9
:1026800009F00AC11092610510926005D0926305AD
:10269000C09262058CE593E00E943C0E809105019A
:1026A00090910601039709F000C110926105109204
:1026B0006005D0926305C092620510925D0510928C
:1026C0005C0523E230E030935F0520935E0588E6E9
:1026D00093E00E943C0E80E595E00E94F20685E0C2
:1026E0000E9443047C01909356048093550486E035
:1026F0000E9443048C01909354048093530484E01B
:102700000E9443045C01909352048093510483E03F
:102710000E944304EC019093500480934F048091F5
:10272000430490914404E816F90661F0E114F104C1
:1027300019F481E080934D0462E370E080E090E062
:102740000E94D105F0924404E09243048091450434
:1027500090914604A816B90661F0A114B10419F4C9
:1027600081E080934E0462E370E080E090E00E949C
:10277000D105B0924604A0924504809147049091FF
:1027800048040817190761F00115110519F481E0D3
:1027900080934C0462E370E080E090E00E94D105F9
:1027A00010934804009347048091490490914A048F
:1027B000C817D90759F0209719F481E080934B048A
:1027C00062E370E080E090E00E94D105D0934A047B
:1027D000C093490480910701909108018A309105C6
:1027E00079F020914B04222309F43CC484309105F4
:1027F00009F038C410924B04D0920801C09207012E
:10280000C0910701D091080180914E04C130D105DB
:1028100009F08BC4882309F436C410924E048091C9
:10282000050190910601019709F449C490930601AE
:10283000809305012AC4E8EBF5E08491EAE9F5E02C
:102840009491E82FF0E0EE0FFF1FEA57FA4FA591A1
:10285000B491EC91E92321F461E08AE00E946C04D8
:1028600061E08AE00E949A048CB580618CBD8CB5D1
:1028700080648CBD61E08DE00E949A0461E08BE091
:102880000E949A04F0CDD0936105C0936005109228
:10289000630510926205E3CED0926105C092600597
:1028A0001092630510926205F5CED0926105C09238
:1028B00060051092630510926205FFCEC230D1050B
:1028C00009F0ACC081E080936405809365050E94A7
:1028D000B90DD0926105C092600510926305109207
:1028E000620570925D0560925C0510925F05109222
:1028F0005E0581E793E00E943C0E01E010E023E5D5
:1029000030E04AE050E070E060E080E595E00E9451
:10291000E00B10925D0510925C0570925F0560926D
:102920005E0580910501909106018130910509F0C5
:1029300054C01092610510926005909363058093D6
:1029400062058AE793E00E943C0E10925D051092AA
:102950005C0550925F0540925E0580910501909163
:102960000601029709F042C01092610510926005BD
:10297000D0926305C092620585E893E00E943C0E08
:10298000809102018823D9F18CE893E00E943C0EEB
:1029900080910501909106010397A1F510926105C0
:1029A00010926005D0926305C092620510925D0599
:1029B00010925C0543E250E050935F0540935E0542
:1029C00083E993E00E943C0E809100019091010107
:1029D000892B09F18CE893E07CCED0926105C092FE
:1029E00060051092630510926205ABCFD09261052D
:1029F000C09260051092630510926205BDCF8FE80A
:102A000093E0C4CFD0926105C09260051092630537
:102A100010926205CBCF8FE893E05BCEC330D10537
:102A200009F04BC081E080936405809365050E94A6
:102A3000B90DD0926105C0926005109263051092A5
:102A4000620570925D0560925C0510925F051092C0
:102A50005E058BE793E00E943C0E01E010E023E569
:102A600030E04AE050E070E060E080E595E00E94F0
:102A7000E00B30925D0520925C0570925F056092DC
:102A80005E058DE993E00E943C0EC2E0C0936405B0
:102A9000C093650530925D0520925C0550925F05FC
:102AA00040925E0580910301909104010E943E0EC8
:102AB000C0936405C09365050ECEC430D10509F0FE
:102AC00043C081E080936405809365050E94B90D41
:102AD000D0926105C0926005109263051092620564
:102AE00070925D0560925C0510925F0510925E0524
:102AF00083EA93E00E943C0E01E010E023E530E021
:102B00004AE050E070E060E080E595E00E94E00B74
:102B100030925D0520925C0570925F0560925E05C3
:102B20008FEA93E00E943C0EC2E0C0936405C0931C
:102B3000650530925D0520925C0550925F054092DC
:102B40005E050E94A60DB2CF2A9709F0C8CD8091EC
:102B500009058111C6C180910C0590910D05209148
:102B600051043091520461E0232BA9F020915304C9
:102B70003091540463E0232B71F020914F04309185
:102B8000500464E0232B39F0209155043091560411
:102B9000232B19F462E00E943C0DE0910C05F091AA
:102BA0000D0586A5811199C1B7A4B11092C1A0915C
:102BB0000E05B0910F0521A58D919C9111972817B5
:102BC000190609F07CC022A512968D919C912817B8
:102BD000190609F074C080910B0581110E94CB0485
:102BE000C0910E05D0910F05209107053091080581
:102BF0008E819F81820F931F909308058093070514
:102C000000910C0510910D05D80198968C9198971C
:102C1000843138F5EA80FB8088809980AA24A394C7
:102C2000A80E9896AC9286E090E00E94821A9401D9
:102C30003327FC0131832083970133273383228399
:102C4000D80199968C9299979A96EC92EA2DE15038
:102C5000FF0B9F01220F331F020F131FD8018D930B
:102C60009C930E9483192EE430E040E050E00E94E3
:102C7000F1198B019C010E5F1F4F2F4F3F4FC80171
:102C800062E070E00E94541A892BF1F519830883E1
:102C90000E9483192AE230E040E050E00E94F119DE
:102CA0008B019C010E5F1F4F2F4F3F4FC80162E009
:102CB00070E00E94541A892B51F51B830A83C0913E
:102CC0000C05D0910D05E881F9816CA528A530E0AF
:102CD000C9010197613091F5DC01AA0FBB1FAC0F50
:102CE000BD1F0D90BC91A02D12964D915C91139734
:102CF0004115510579F042505109538342834D915A
:102D00005C915183408307C00F5F1F4FBFCF0F5FA0
:102D10001F4FD3CF6FA74E01AE0170E060E0621786
:102D200073070CF050C06F5F7F4FDA0112960D9160
:102D30001C9113970D931D93AD01F1CF623091F467
:102D4000DC01AA0FBB1FAC0FBD1F0D90BC91A02DC5
:102D500012964D915C9113974E32510589F14E5F59
:102D60005F4FCBCF6330C1F4DC01AA0FBB1FAC0FA8
:102D7000BD1F0D90BC91A02D4D915C9111974235D6
:102D80005105F1F04E5F5F4F5183408312964D9194
:102D90005C9153834283BFCF643009F0BCCFDC0128
:102DA000AA0FBB1FAC0FBD1F0D90BC91A02D4D9164
:102DB0005C9111974115510519F042505109E4CF2A
:102DC00041E04FA7A8CF9C01220F331F2C0F3D1FBE
:102DD000D901ED93FC932081318129A74281538150
:102DE0004AA770E060E033275527FF24F394681763
:102DF00079079CF4D401ED91FD914D010081118181
:102E00000217130739F40280F381E02DE417F50768
:102E100009F4FEA66F5F7F4FEACF88A5B816F0F4DD
:102E200088A999A92DA530E0EB2DF0E0EE0FFF1F4A
:102E3000EC0FFD1F0190F081E02D428153816081F4
:102E40007181DC01ED91FC9100A0F1A1E02DEE2457
:102E5000E394F12C89010995B394DFCFE0910E053D
:102E6000F0910F0580859185428153816081718148
:102E7000DC01ED91FC9100A0F1A1E02DEE24E394A2
:102E8000F12C02E010E022E030E00995809110057D
:102E900090911105DC01ED91FC9106A0F7A1E02DC8
:102EA000EE24E394F12C00E310E024E530E050E060
:102EB00040E070E060E00995809110059091110567
:102EC0000E94F20668E270E080E090E00E94D10586
:102ED00006CC81E080930905D9CF81E08093090574
:102EE000F1CFC1E0C0936405C093650510925D0504
:102EF00010925C0510925F0510925E0585EB93E0E1
:102F00000E94CA0D84EC93E00E94CA0DC093640530
:102F1000C093650510925D0510925C0570925F0587
:102F200060925E050E94A60D20910705309108056C
:102F3000281739070CF48DC083EA93E00E943C0EF9
:102F4000C09107056091080581E090E00E94E319B7
:102F50006C2F82E090E00E94E31960910705709168
:102F60000805072E000C880B990B97FF77C00E946D
:102F70001B0E84EC93E00E94CA0D80E595E00E9450
:102F8000F2068091530490915404892B09F09ACF52
:102F900084E180934605109247051092480581E030
:102FA00080934905B3E0B0934A0592E090934B05B6
:102FB00010924C0510924D051092150510921405B3
:102FC0001092170510921605109219051092180507
:102FD000E4E6F0E0F0931B05E0931A051092080573
:102FE000109207051092090510920A0580930B05AF
:102FF00080E595E090931105809310052EE135E072
:1030000030930D0520930C0544E155E050930F05D6
:1030100040930E0590934F0580934E050E94540DEA
:10302000809110059091110590931D0580931C05CA
:1030300084E290E09093150580931405A4E0B0E03D
:10304000B0931705A0931605D0920801C09207010E
:1030500039CF83EA93E00E943C0E7FCF4AE00E9482
:10306000D70D87CF20914B04222309F4C9CB82309E
:1030700091050CF4C5CB10924B0401979093080175
:1030800080930701BDCB80914E0480914D04811146
:1030900019C080914D0480914C04882381F11092D5
:1030A0004C04809105019091060181309105F1F465
:1030B0008AE090E0909308018093070120C083E0AC
:1030C00090E0B4CB10924D048091050190910601DF
:1030D00001968430910529F09093060180930501B3
:1030E000DACFD0920601C0920501D5CF823091058A
:1030F00099F4E4E0F0E0F0930801E093070180E048
:1031000090E0892B09F462CA0E947703882309F4AE
:1031100054CA0E94000051CA039789F7D092060151
:10312000C092050182E090E0C5CF882381F0C230D3
:10313000D10569F410924E04809105019091060129
:10314000019791F1909306018093050104C080914D
:103150004E0481112CC080914D04882319F0C23097
:10316000D105B1F180914D04811146C080914C048C
:10317000882329F210924C04C230D10509F06AC0AC
:1031800080910501909106018230910509F066C099
:1031900080910201882309F441C01092020161E08C
:1031A00087E00E946C04ABCF83E090E0CBCFC230CD
:1031B000D10589F610924E0480910301909104018B
:1031C000019790930401809303010E94320DC3CFB5
:1031D00010924D0480910501909106010196843072
:1031E000910529F09093060180930501BFCFD092FD
:1031F0000601C0920501BACFC330D10509F0B6CFA0
:1032000010924D04809103019091040101969093D6
:103210000401809303010E94320DA8CF81E08093C6
:10322000020160E0BDCF8091000190910101892BE6
:1032300039F0109201011092000110920B055FCF3E
:10324000D0920101C092000181E080930B050E94A1
:10325000CB0455CF239709F465CF51CF8330910527
:1032600011F3019709F04BCF83E090E023CF8F92C9
:103270009F92AF92BF92CF92DF92EF92FF92CF9345
:10328000DF93EC01688179818A819B8161157105E9
:103290008105910521F464E279ED8BE597E02DE15C
:1032A00033EF41E050E00E94F11949015A019B01BE
:1032B000AC01A7EAB1E40E94101A6B017C01ACEEEC
:1032C000B4EFA50194010E941E1AC60ED71EE81E77
:1032D000F91EF7FE06C081E0C81AD108E10880E8AF
:1032E000F80AC882D982EA82FB82C701B6019F77B9
:1032F000DF91CF91FF90EF90DF90CF90BF90AF9094
:103300009F908F9008958F929F92AF92BF92CF928D
:10331000DF92EF92FF92609102037091030380911C
:10332000040390910503611571058105910521F450
:1033300064E279ED8BE597E02DE133EF41E050E079
:103340000E94F11949015A019B01AC01A7EAB1E4BD
:103350000E94101A6B017C01ACEEB4EFA501940140
:103360000E941E1AC60ED71EE81EF91EF7FE06C0E2
:1033700081E0C81AD108E10880E8F80AC092020387
:10338000D0920303E0920403F0920503C701B60153
:103390009F77FF90EF90DF90CF90BF90AF909F907E
:1033A0008F90089560930203709303038093040346
:1033B000909305030895F999FECF92BD81BDF89AC7
:1033C000992780B50895262FF999FECF1FBA92BD8F
:1033D00081BD20BD0FB6F894FA9AF99A0FBE0196F6
:1033E0000895052E97FB1EF400940E94081A57FDBD
:1033F00007D00E94231A07FC03D04EF40C94081A3D
:1034000050954095309521953F4F4F4F5F4F089510
:1034100090958095709561957F4F8F4F9F4F089540
:103420000E94451AA59F900DB49F900DA49F800DFA
:10343000911D11240895B7FF0C94101A0E94101AC0
:10344000821B930B0895A1E21A2EAA1BBB1BFD0140
:103450000DC0AA1FBB1FEE1FFF1FA217B307E40773
:10346000F50720F0A21BB30BE40BF50B661F771FCB
:10347000881F991F1A9469F76095709580959095AB
:103480009B01AC01BD01CF010895A29FB001B39F84
:10349000C001A39F700D811D1124911DB29F700D5D
:1034A000811D1124911D089597FB072E16F4009499
:1034B00007D077FD09D00E94681A07FC05D03EF4BA
:1034C000909581959F4F0895709561957F4F0895D0
:1034D000AA1BBB1B51E107C0AA1FBB1FA617B7073A
:1034E00010F0A61BB70B881F991F5A95A9F7809556
:1034F0009095BC01CD010895EE0FFF1F0590F4914A
:10350000E02D09940F931F93CF93DF9382309105A1
:1035100010F482E090E0E0917C05F0917D0530E0D0
:1035200020E0B0E0A0E0309799F42115310509F4CE
:103530004AC0281B390B24303105D8F58A819B817C
:103540006115710589F1FB0193838283FE0111C02E
:10355000408151810281138148175907E0F04817D3
:10356000590799F4109761F012960C9312971396DD
:103570001C933296CF01DF91CF911F910F91089547
:1035800000937C0510937D05F4CF2115310551F092
:103590004217530738F0A901DB019A01BD01DF0191
:1035A000F801C1CFEF01F9CF90937D0580937C05A1
:1035B000CDCFFE01E20FF31F819391932250310989
:1035C00039832883D7CF20917A0530917B05232B2F
:1035D00041F4209108033091090330937B05209337
:1035E0007A0520910603309107032115310541F436
:1035F0002DB73EB740910A0350910B03241B350BA6
:10360000E0917A05F0917B05E217F307A0F42E1BF9
:103610003F0B2817390778F0AC014E5F5F4F241736
:10362000350748F04E0F5F1F50937B0540937A0596
:10363000819391939FCFF0E0E0E09CCFCF93DF9315
:103640000097E9F0FC01329713821282A0917C0569
:10365000B0917D05ED0130E020E01097A1F42081CC
:103660003181820F931F20917A0530917B052817B5
:10367000390709F061C0F0937B05E0937A05DF918B
:10368000CF910895EA01CE17DF07E8F54A815B8103
:103690009E0141155105B1F7E901FB83EA83499188
:1036A0005991C40FD51FEC17FD0761F480819181FA
:1036B0000296840F951FE901998388838281938103
:1036C0009B838A83F0E0E0E012968D919C911397A2
:1036D0000097B9F52D913C911197CD010296820F7B
:1036E000931F20917A0530917B052817390739F609
:1036F000309751F510927D0510927C05B0937B05B3
:10370000A0937A05BCCFD383C28340815181840FBB
:10371000951FC817D90761F44E5F5F4F8881998163
:10372000480F591F518340838A819B8193838283F1
:103730002115310509F0B0CFF0937D05E0937C05AC
:103740009ECFFD01DC01C0CF13821282D7CF81E072
:1037500090E0F8940C94AC1BF894FFCF0100013C6E
:103760000001000100000000000000000000000057
:103770000000000000000000000000000000000049
:103780000000000000000000000000C0E0F0F8FCB5
:10379000FCFEFFFCE0000000000000000000000054
:1037A0000000000000000000000000000000000019
:1037B0000000000000000000000000000000000009
:1037C00000000000000000000000F8F8F8F8F8F829
:1037D000F8F8F8F8F8F8F0F0E0E0C080C0FCFFFF7F
:1037E000FFFF7F3F7FFFFFFFFFFF000000000000A3
:1037F00000000000000000000000000000000000C9
:1038000000000000000000000000000000000000B8
:103810000000000000000000000000000000000F99
:103820001F3F7FFFFFFFFFFFFFFFFFE7C7C7878F38
:103830009F9FFFFFFFC1C0E0FCFFFFFFFFFFFCFCFD
:10384000FCFCFEFEFEFCFCF8F8F0E0C0C00000004E
:103850000000000000000000000000000000000068
:103860000000000000000000000000000000000058
:1038700000000000000080C0E0F1FBFFFFFFFFFF41
:103880007F1F0F0F87E7FFFFFF1F1F3FF9F8F8F8B3
:10389000F8F8F8FDFFFFFFFFFFFFFFFFFF7F3F0F7F
:1038A0000701000000000000000000000000000010
:1038B0000000000000000000000000000000000008
:1038C0000000000000000000F0FEFFFFFFFFFFFF10
:1038D000FFFFFFFFFE7E3F3F0F1FFFFFFFFCF0E0FB
:1038E000F1FFFFFFFFFFFCF00101010101010101F8
:1038F00000000000000000000000000000000000C8
:1039000000000000000000000000000000000000B7
:10391000000000000000000000000000030303039B
:103920000303030301010101000000000000000384
:103930000F1F3F7F7FFFFFFFFF7F7F1F0300000000
:103940000000000000000000000000000000000077
:1039500000000000000000000000000000FF010067
:10396000000000007E05800000000000AD030D0394
:103970003A03FA036B0349035D0300000000D50915
:103980000D032F0D2E0D42072A067A0C520C6E0CD9
:10399000620C810C2A069B079A07190CE00B9B0B03
:1039A0007E0B060BA70A536E616B652047616D6540
:1039B000003E4A75676172003E50756E74756163B2
:1039C000696F6E003E416A75737465730053657468
:1039D00074696E6773003E436F6E747261737465D1
:1039E000003E6C757A3A20004F4E004F4646003E2E
:1039F000536F6E69646F3A200056616C6F720050AD
:103A0000756E74756163696F6E3A0076616C6F7282
:103A10000046494E2044454C204A5545474F210019
:043A20000D0A00008B
:107E0000112484B714BE81FFF0D085E080938100F7
:107E100082E08093C00088E18093C10086E0809377
:107E2000C20080E18093C4008EE0C9D0259A86E02C
:107E300020E33CEF91E0309385002093840096BBD3
:107E4000B09BFECF1D9AA8958150A9F7CC24DD24C4
:107E500088248394B5E0AB2EA1E19A2EF3E0BF2EE7
:107E6000A2D0813461F49FD0082FAFD0023811F036
:107E7000013811F484E001C083E08DD089C08234E0
:107E800011F484E103C0853419F485E0A6D080C0E4
:107E9000853579F488D0E82EFF2485D0082F10E0AE
:107EA000102F00270E291F29000F111F8ED06801E7
:107EB0006FC0863521F484E090D080E0DECF843638
:107EC00009F040C070D06FD0082F6DD080E0C81688
:107ED00080E7D80618F4F601B7BEE895C0E0D1E017
:107EE00062D089930C17E1F7F0E0CF16F0E7DF06D8
:107EF00018F0F601B7BEE89568D007B600FCFDCFD4
:107F0000A601A0E0B1E02C9130E011968C91119780
:107F100090E0982F8827822B932B1296FA010C0160
:107F200087BEE89511244E5F5F4FF1E0A038BF0790
:107F300051F7F601A7BEE89507B600FCFDCF97BE46
:107F4000E89526C08437B1F42ED02DD0F82E2BD052
:107F50003CD0F601EF2C8F010F5F1F4F84911BD097
:107F6000EA94F801C1F70894C11CD11CFA94CF0C13
:107F7000D11C0EC0853739F428D08EE10CD085E9AC
:107F80000AD08FE07ACF813511F488E018D01DD067
:107F900080E101D065CF982F8091C00085FFFCCF94
:107FA0009093C60008958091C00087FFFCCF809118
:107FB000C00084FD01C0A8958091C6000895E0E648
:107FC000F0E098E1908380830895EDDF803219F02E
:107FD00088E0F5DFFFCF84E1DECF1F93182FE3DFCA
:107FE0001150E9F7F2DF1F91089580E0E8DFEE27F6
:047FF000FF270994CA
:027FFE00040479
:00000001FF
